:020000040800F2
:1000000000300020BD10000805110008051100088F
:100010000511000805110008051100080000000086
:1000200000000000000000000000000005110008B2
:100030000511000800000000051100080511000866
:1000400000000000000000000000000000000000B0
:1000500000000000000000000000000000000000A0
:100060000000000000000000000000000000000090
:100070000000000000000000000000000000000080
:100080000000000000000000000000000000000070
:100090000000000000000000000000000000000060
:1000A0000000000000000000000000000000000050
:1000B0000000000000000000000000000000000040
:1000C0000000000000000000000000000000000030
:1000D0000000000000000000000000000000000020
:1000E0000000000000000000000000000000000010
:1000F0000000000000000000000000000000000000
:1001000000000000000000000000000000000000EF
:1001100000000000000000000000000000000000DF
:1001200000000000000000000000000000000000CF
:1001300000000000000000000000000000000000BF
:1001400000000000000000000000000000000000AF
:10015000000000000000000000000000000000009F
:10016000000000000000000000000000000000008F
:10017000000000000000000000000000000000007F
:08018000000000000000000077
:1001900010B5054C237833B9044B13B10448AFF3C1
:1001A00000800123237010BDB8040020000000006F
:1001B000B81900080C4B43B10C480D4910B5AFF30A
:1001C00000800C48036823B910BD0A48036833B99E
:1001D0007047094B002BF7D0BDE810401847064B7D
:1001E000002BF5D0184700BF00000000B819000828
:1001F000BC040020B8040020000000000000000043
:1002000001F0FF01102A2BDB10F0070F08D010F8C7
:10021000013B013A8B422DD010F0070F42B3F6D1CB
:10022000F0B441EA012141EA014122F007047FF0E4
:1002300000070023F0E80256083C85EA010586EA3B
:10024000010685FA47F5A3FA87F586FA47F6A5FA77
:1002500087F68EB9EED1F0BC01F0FF0102F0070283
:1002600032B110F8013B013A83EA010313B1F8D12E
:100270000020704701387047002D06BF354603380F
:10028000073815F0010F07D1013015F4807F02BF48
:10029000013015F4C03F0130F0BC0138704700BF99
:1002A00038B5451E15F8014F24B90A2000F02CF985
:1002B000204638BD204600F027F9F3E70346014405
:1002C00000208B4200D1704713F8012B82EA306086
:1002D000F7E7000030B5C3B001AD002328601C462D
:1002E000CA5CE85C01334240042B82EA3464F7D1F3
:1002F0002346054AFF2102A800F030FF02A8FFF7BD
:10030000CFFF204643B030BDE31900080148FFF796
:10031000C7BF00BFEF19000810B504460548FFF736
:10032000BFFF2046FFF7BCFF0348BDE81040FFF7C2
:10033000B7BF00BFD4190008FB19000810B50C4660
:100340001146FFF7C7FF031B5842584110BD00007C
:1003500010B50E4C0E4B22689A4211D100F0C6F82F
:10036000D4F84C1404F14C00FFF7A8FF221DD4F878
:100370005014FFF7E3FF38B104F10C00FFF7CCFF96
:1003800000F0BBF8002010BD2060F9E7000000205D
:1003900047B3EDFE08B500F009F800F047F800F0AB
:1003A00081F8FFF7D5FFFFF7B1FFFEE770B596B014
:1003B000002403264FF4A0230CA801250D931094CC
:1003C00014940C9600F0B8F80F23214602A802936B
:1003D000049405940694039500F018FB114B5A6998
:1003E00042F400225A615B69099403F400230E4C25
:1003F0000193019B08954FF4C04307A9204607933A
:100400000A9600F0A9FB2A4620464FF4005100F05E
:1004100065FC2A464FF48041204600F05FFC16B090
:1004200070BD00BF001002400008004810B588B041
:100430004FF4C06303930223049301230593032322
:10044000154C069307230793636943F400336361F4
:10045000636903F40033019303A94FF09040019BBB
:1004600000F07AFB0D480E4B4FF4164E80E8084022
:1004700000238360C360036183610C234361A3692C
:1004800043F48043A361A36903F480430293029B76
:1004900000F078FD08B010BD00100240E804002014
:1004A00000380140104B30B55A6942F400325A61AD
:1004B0005B6987B003F400330093009B01234FF482
:1004C000805402930025032301A94FF09040049328
:1004D0000194039500F040FB2A4621464FF09040DE
:1004E00000F0FCFB07B030BD0010024001224FF4C9
:1004F00080514FF0904000F0F1BB00224FF480514A
:100500004FF0904000F0EABB07B502A941F28833F2
:1005100001F8010D0122034800F05FFD03B05DF812
:1005200004FB00BFE8040020024B1868421C1A605C
:10053000704700BFD404002003682DE9F743D907B2
:10054000044611D423689A0700F1868023681E07A9
:1005500000F1F48023685D0700F13B81E269002A25
:1005600040F0CF81002021E0B7494B6803F00C0335
:10057000042B07D04B6803F00C03082B19D14B68F0
:10058000DB0316D54FF4003393FAA3F2096893FA0C
:10059000A3F3B3FA83F303F01F03012202FA03F378
:1005A0000B42CFD06368002BCCD1012003B0BDE853
:1005B000F0836268B2F5803F24D10B6843F4803346
:1005C0000B60CB6AA06823F00F030343CB624AB3EE
:1005D000FFF7AAFF4FF400350746012695FAA5F369
:1005E0000A6895FAA5F3B3FA83F303F01F0306FA3A
:1005F00003F31342A6D1FFF797FFC01B6428EDD980
:100600000320D3E70B6832B923F480330B600B6807
:1006100023F48023D4E7B2F5A02FF5D143F480234F
:100620000B60CAE7FFF780FF4FF40035074601264D
:1006300095FAA5F30A6895FAA5F3B3FA83F303F0E4
:100640001F0306FA03F313423FF47CAFFFF76CFF7E
:10065000C01B6428ECD9D3E77B494B6813F00C0F1F
:1006600007D04B6803F00C03082B21D14B68DF0344
:100670001ED4022393FAA3F2086893FAA3F3B3FA01
:1006800083F303F01F03012202FA03F3034202D0B3
:100690002369934289D10868F82393FAA3F3B3FA44
:1006A00083F26369934020F0F80213430B604DE737
:1006B0002269012502B395FAA5F3B3FA83F303F196
:1006C000845303F584139B0002261D60FFF72CFF63
:1006D000074696FAA6F30A6896FAA6F3B3FA83F3E6
:1006E00003F01F0305FA03F31342D4D1FFF71CFFF5
:1006F000C01B0228EDD983E795FAA5F3B3FA83F37B
:1007000003F1845303F584139B0002261A60FFF75C
:100710000BFF074696FAA6F30A6896FAA6F3B3FA11
:1007200083F303F01F0305FA03F313423FF40EAF04
:10073000FFF7FAFEC01B0228ECD961E7A269424D1F
:100740004248012112B391FAA1F3B3FA83F30344AF
:100750009B0002261960FFF7E7FE074696FAA6F30C
:1007600096FAA6F396FAA6F36A6A96FAA6F3B3FA8D
:1007700083F303F01F0301FA03F313427FF4EAAE9D
:10078000FFF7D2FEC01B0228E8D939E791FAA1F39E
:10079000B3FA83F303449B0002261A60FFF7C4FEFA
:1007A000074696FAA6F396FAA6F396FAA6F36A6AAD
:1007B00096FAA6F3B3FA83F303F01F0301FA03F3E7
:1007C00013423FF4C7AEFFF7AFFEC01B0228E8D9C3
:1007D00016E71D49CB69D80033D4CB6943F0805369
:1007E000CB61CB6903F080530193019B0125184E27
:1007F0003368DA052ED5E368012B3BD10B6A43F051
:1008000001030B62FFF790FE02268146B0460127E6
:1008100096FAA6F396FAA6F3002B6AD00A6A98FA1B
:10082000A8F3B3FA83F303F01F0307FA03F31342A9
:1008300056D0002D3FF492AECB6923F08053CB61AC
:100840008CE60025D3E700BF001002402081901005
:1008500000700040336843F480733360FFF764FE38
:1008600007463368DB05C6D4FFF75EFEC01B64286D
:10087000F7D9C5E633BB0B6A23F001030B620B6AA1
:1008800023F004030B62FFF74FFE02268146B046B9
:10089000012796FAA6F396FAA6F373B30A6A98FAB2
:1008A000A8F3B3FA83F303F01F0307FA03F3134229
:1008B000BFD0FFF739FE41F28833A0EB0900984220
:1008C000E7D99DE6052B0B6A03D143F004030B62C5
:1008D00094E723F001030B620B6A23F0040390E713
:1008E000FFF722FE41F28833A0EB090098428FD92E
:1008F00086E696FAA6F34A6A91E796FAA6F34A6A5A
:10090000CDE741494B6803F00C03082B3FF44DAE93
:10091000022A4FF0807351D193FAA3F3B3FA83F311
:1009200003F1845303F584139B0000221A60FFF740
:10093000FBFD4FF000760746012596FAA6F30A68FC
:1009400096FAA6F3B3FA83F303F01F0305FA03F351
:1009500013422DD14A68636A206A22F47412034359
:1009600013434B604FF0807393FAA3F3B3FA83F30E
:1009700003F1845303F584139B004FF000741D6052
:10098000FFF7D2FD0125064694FAA4F30A6894FA0B
:10099000A4F3B3FA83F303F01F0305FA03F313423E
:1009A0007FF4E0ADFFF7C0FD801B0228ECD927E6FD
:1009B000FFF7BAFDC01B0228BFD921E693FAA3F3C3
:1009C000B3FA83F303F1845303F584139B000022ED
:1009D0001A60FFF7A9FD4FF000740646012594FA4E
:1009E000A4F30A6894FAA4F3B3FA83F303F01F03A1
:1009F00005FA03F313423FF4B5ADFFF795FD801BF5
:100A00000228ECD9FCE500BF00100240504AF8B5BE
:100A1000136803F007038B4205461BD32A6890072F
:100A200024D4D2072AD44A4A136803F00703994210
:100A30007AD32868430700F1828010F0080008D0BC
:100A4000444A2969536823F4605343EAC10353605D
:100A50000020F8BD136823F007030B4313601368ED
:100A600003F007039942D9D00120F8BD3948AC689A
:100A7000436823F0F00323434360D2E76A68354CB0
:100A8000012A27D14FF4003393FAA3F0206893FA98
:100A9000A3F3B3FA83F303F01F0302FA03F3034251
:100AA000E2D0636823F003031A436260FFF73CFD62
:100AB0006B68012B064641F288371ED1636803F04C
:100AC0000C03042BAFD0FFF72FFD801BB842F5D9E4
:100AD0000320F8BD022A0CBF4FF00073022393FAE3
:100AE000A3F0266893FAA3F3B3FA83F303F01F038A
:100AF000012000FA03F33342D2E7022B0FD16368DF
:100B000003F00C03082B8ED0FFF70EFD801BB842BC
:100B1000F5D9DDE7FFF708FD801BB842D8D8636838
:100B200013F00C0FF6D17EE7136823F007030B4395
:100B30001360136803F00703994295D179E7054ADA
:100B4000E968536823F4E0630B43536075E700BF23
:100B500000200240001002402DE9F74FD1F800803C
:100B6000DFF874915A4A002338FA03F402D103B033
:100B7000BDE8F08F012404FA03FA18EA0A0500F030
:100B80009C804C6824F0100BBBF1020F14D14FEA8B
:100B9000D30E00EB8E0E03F0070CDEF820604FEA58
:100BA0008C0C0F2707FA0CF726EA07070E6906FADE
:100BB0000CF63E43CEF820604FEA430C032706684C
:100BC00007FA0CF7FF4304F0030E3E400EFA0CFE4A
:100BD0000BF1FF3B4EEA0606BBF1010F066011D890
:100BE000866806EA070BCE6806FA0CFE4EEA0B068C
:100BF0008660466826EA0A0AC4F300169E4046EA62
:100C00000A064660C66837408E6806FA0CF6374317
:100C1000E600C76051D5D9F8186046F00106C9F85A
:100C20001860D9F8186023F0030707F1804706F031
:100C3000010607F58037019603F0030C019EBE689C
:100C40004FEA8C0C4FF00F0E0EFA0CFEB0F1904FE5
:100C500026EA0E0E33D01F4EB04232D006F5806623
:100C6000B04230D006F58066B0422ED006F58066E0
:100C7000B04214BF0526042606FA0CF646EA0E0614
:100C8000BE601668EF4314F4803F0CBF3E402E4315
:100C90001660566814F4003F0CBF3E402E43566069
:100CA000966814F4801F0CBF3E402E439660D668B1
:100CB000A40254BF3E402E43D660013354E70026C1
:100CC000DAE70126D8E70226D6E70326D4E700BFF5
:100CD0000004014000040048001002400AB1816194
:100CE000704781627047000002688168C36930B54F
:100CF000056914682943456924F41644294324F0FE
:100D00000C041943214311605168C468056A21F439
:100D10004051214351609468816924F4306429432F
:100D20002143916062498A4212D101F55841614CD8
:100D3000096B01F00301B3F5004F615C6ED0082927
:100D400019D8DFE801F0B08B9618B0181818A00079
:100D500059498A422CD101F5E631096B01F4403141
:100D6000B1F5803F00F09C8007D8002900F0988002
:100D7000B3F5004F6FD0012030BDB1F5003F00F05A
:100D80008780B1F5403FF3D1B3F5004F71D1416891
:100D90004B0803F1F47303F59043B3FBF1F3002028
:100DA0009BB223F00F01C3F342030B43D36030BD6A
:100DB00042498A420ED101F5E431096B01F4402128
:100DC000B1F5802F6CD0D0D9B1F5002F60D0B1F53E
:100DD000402FD8E73A498A420ED101F5E231096B3A
:100DE00001F44011B1F5801F5AD0BED9B1F5001FF2
:100DF0004ED0B1F5401FC6E732498A42B8D101F55D
:100E0000E031096B01F44001B1F5800F48D0ACD955
:100E1000B1F5000F3CD0B1F5400FB4E708291AD85E
:100E200001A353F821F000BF4D0E00084D0E00083D
:100E30008F0D0008570E00084D0E0008570E0008D1
:100E4000570E0008570E0008970E000841684B081F
:100E500003F56103A1E701200023A2E742685308DC
:100E600003F5E103B3FBF2F3114A9BB2D360002018
:100E700030BD41684B0803F5740303F51053B3FB11
:100E8000F1F39BB2F2E741684B0803F50043F6E744
:100E9000B3F5004FF7D141684B0803F580337CE789
:100EA000B3F5004FD2D041684B0803F5E103E6E704
:100EB00000380140D01900080044004000480040BC
:100EC000004C004000500040F8B5069D0446164610
:100ED0001F462068C26931EA02030CBF01220022CA
:100EE000B24201D00020F8BD6B1CF3D095B9236845
:100EF0001A6822F4D0721A609A6822F001029A608D
:100F0000202384F8693084F86A30002384F868303C
:100F10000320F8BDFFF708FBC01B8542D9D2E6E7E6
:100F200037B504460021C166FFF7FEFA23681B6847
:100F30001A07054617D423681B685B070AD56FF0AC
:100F40007E43009300222B464FF480012046FFF79A
:100F5000BBFFA0B92023002084F8693084F8680022
:100F600084F86A300CE06FF07E4300930A46034633
:100F70004FF400112046FFF7A7FF0028DBD0032025
:100F800003B030BD10B5044628B390F8693003F0C3
:100F9000FF020BB980F868202268242384F86930A6
:100FA000136823F0010313602046FFF79DFE01281C
:100FB00011D023685A6822F490425A609A6822F04D
:100FC0002A029A601A6842F0010220461A60BDE8BF
:100FD0001040FFF7A5BF012010BDF7B51F4690F8E0
:100FE0006930202B0D46044611464BD1002D47D0C9
:100FF000002A45D090F86830012B43D0012380F8B7
:1010000068300023C366212380F86930FFF78CFA2B
:101010000646A4F85010A4F85210B4F8522092B228
:1010200062B90097334640212046FFF74DFF98B93B
:10103000202384F8693084F868000EE0B4F8523058
:101040000097013B9BB2A4F8523000223346802126
:101050002046FFF739FF10B1032003B0F0BDA368AD
:101060002268B3F5805F07D123692BB935F8023BBD
:10107000C3F308031385D0E72B7813850135CCE73C
:101080000120EAE70220E8E708B50A4B19680246A2
:1010900009B9094919601868694602448A4206D9A3
:1010A00000F032F80C2303604FF0FF3008BD1A60E7
:1010B00008BD00BFDC04002060050020002103E023
:1010C0000B4B5B58435004310A480B4B42189A4271
:1010D000F6D30A4A02E0002313600432084B9A4216
:1010E000F9D3AFF3008000F015F8FFF753F9FEE7EE
:1010F000401A000800000020B8040020B8040020B6
:101100005C050020FEE70000014B1868704700BF37
:101110005404002070B50D4E0D4CA41BA4100025E6
:10112000A54209D10B4E0C4C00F046FCA41BA410A8
:101130000025A54205D170BD56F8253098470135E8
:10114000EEE756F8253098470135F2E7381A0008DF
:10115000381A0008381A00083C1A00080CB430B5D8
:10116000174B0C1E9DB01D6808DA8B232B604FF0C7
:10117000FF301DB0BDE8304002B070474FF402733D
:10118000ADF8143014BF04F1FF33234604930793E2
:101190004FF6FF7302900690ADF81630209A21ABFF
:1011A00002A92846019300F069F8431CBCBF8B23B9
:1011B0002B60002CDDD0029B00221A70D9E700BF03
:1011C000540400202DE9F0478E689E4282460C466A
:1011D0009146984635D88A8912F4906F31D02568A7
:1011E00009696F1A6569022305EB450595FBF3F55F
:1011F00008F101033B449D4238BF1D46530531D5DC
:10120000294600F039FB064650B90C23CAF80030D5
:10121000A38943F04003A3814FF0FF30BDE8F0877E
:101220003A46216900F0B4FAA38923F4906343F0AD
:101230008003A381266165613E44ED1B2660A560A5
:101240004646464528BF464632464946206800F095
:10125000AAFAA3689B1BA36023681E442660002093
:10126000BDE8F0872A4600F065FB06460028E1D17C
:101270002169504600F0B2FAC7E700002DE9F04FAF
:101280009DB0804603938B891C060D4616460FD5EC
:101290000B696BB9402100F0EFFA2860286128B98A
:1012A0000C23C8F800304FF0FF30C5E040236B61DD
:1012B0000023099320238DF8293030238DF82A301C
:1012C0004FF0010B37463C4614F8013B002B3CD154
:1012D000B7EB060A0BD05346324629464046FFF785
:1012E00071FF013000F0A380099B534409933B78C0
:1012F000002B00F09C8000234FF0FF3204930793F3
:10130000059206938DF853301A93052221785048A0
:10131000FEF776FF671C049BD8B9D90644BF20228C
:101320008DF853201A0744BF2B228DF853202278C2
:101330002A2A16D0079A00210A20274601343B7832
:10134000303B092B51D9C9B111E0252BC0D027461C
:10135000B9E73F4A801A0BFA00F0184304903C4664
:10136000D3E7039A111D12680391002A01DB07924B
:1013700004E0524243F00203079204933B782E2B81
:101380000ED17B782A2B07F1010132D1039B1A1D64
:101390001B680392002BB8BF4FF0FF330237059351
:1013A0002C4C397803222046FEF72AFF38B140231F
:1013B000001B03FA00F0049B0343049301373978C0
:1013C00025488DF8281006227E1CFEF719FF0028FC
:1013D00035D0224BFBB9039B073323F007030833B7
:1013E0000393099B4B4409936CE700FB02320121F4
:1013F000A3E70023059318460A240F4601313A78E3
:10140000303A092A03D9002BCAD00590C8E704FB5B
:1014100000200123F1E703AB00932A46104B04A9F7
:101420004046AFF30080B0F1FF3F8146D9D1AB8990
:101430005B063FF538AF09981DB0BDE8F08F03ABF0
:1014400000932A46064B04A9404600F081F8EAE7DB
:10145000041A00080A1A00080E1A0008000000000A
:10146000C51100082DE9F04791461F468A680B69AF
:10147000DDF820809342B8BF1346C9F8003091F8D8
:10148000432006460C4612B10133C9F800302368E8
:10149000990642BFD9F800300233C9F800302568F8
:1014A00015F0060507D104F1190AE368D9F8002000
:1014B0009B1A9D4229DB94F843302268003318BF01
:1014C000012392062ED404F1430239463046C04728
:1014D000013021D02368E568D9F8002003F0060325
:1014E000042B08BFAD1AA36822690CBF25EAE57575
:1014F00000259342C4BF9B1AED184FF000091A341F
:101500004D451BD10020BDE8F087012352463946E6
:101510003046C047013003D14FF0FF30BDE8F087BF
:101520000135C2E7E1185A1C302081F843002244FB
:1015300094F8451082F843100233C4E70123224691
:1015400039463046C0470130E6D009F10109D7E7F6
:101550002DE9F04317460A7E85B06E2A9846064666
:101560000C460C9B01F1430E00F0BC801AD8632A94
:101570002ED00AD8002A00F0C880582A00F08A80AD
:1015800004F1420584F842202AE0642A01D0692A45
:10159000F6D121681A6811F0800F23D0111D19604F
:1015A000136827E0732A00F0B48008D86F2A2AD085
:1015B000702AE5D10A6842F020020A6003E0752A29
:1015C00021D0782ADCD1782284F845206E4964E065
:1015D0001A6801F14205111D1960136884F8423040
:1015E0000123A3E011F0400F02F104011960D7D0EC
:1015F000B2F90030002B03DA2D225B4284F843203D
:1016000062490A2217E02068196810F0800F03D0A1
:10161000081D18600B6806E010F0400F01F104008F
:101620001860F7D00B8859496F2A14BF0A22082284
:10163000002084F843006568A560002DC0F29C80FE
:10164000206820F004002060002B3FD1002D40F0E6
:1016500095807546082A0BD12368DA0708D52369D7
:1016600062689A42DEBF302305F8013C05F1FF3580
:10167000AEEB05032361CDF800803B4603AA21466B
:101680003046FFF7EFFE013055D14FF0FF3005B087
:10169000BDE8F08381F845203C492268186812F0C3
:1016A000800F00F104051D6001D0036802E05506BB
:1016B000FBD50388D00744BF42F0200222601BB94B
:1016C000226822F0200222601022B1E77546B3FBA7
:1016D000F2F002FB1033CB5C05F8013D0346002815
:1016E000F5D1B7E708681A68496910F0800F04D08F
:1016F000101D18601368196007E010F0400F02F128
:10170000040018601368F6D0198000232361754621
:10171000B1E71A68111D1960156862680021284632
:10172000FEF76EFD08B1401B606063682361002313
:1017300084F843309FE723692A4639463046C0473C
:101740000130A2D023689B0707D5002504F11909B1
:10175000E368039A9B1A9D4205DBE068039B98426D
:10176000B8BF184693E701234A4639463046C0477A
:1017700001308AD00135EBE7002BA7D10B7884F834
:10178000423004F1420565E7261A0008151A0008E0
:1017900010B5431E0A44914200D110BD11F8014B0F
:1017A00003F8014FF7E7884210B501EB020303D8B5
:1017B000421E99420CD110BD9842F9D28118D21A1A
:1017C000D34200D110BD13F8014D01F8014DF7E7E8
:1017D00011F8014B02F8014FEBE7000038B5054660
:1017E000002945D051F8043C0C1F002BB8BFE41869
:1017F00000F0D6F81F4A1368104633B963601460CE
:101800002846BDE8384000F0CCB8A3420CD9216886
:101810006218934204BF1A685B68636004BF521881
:1018200022600460ECE713465A680AB1A242FAD972
:1018300019685818A0420BD12068014458188242F8
:101840001960DDD1106852685A6001441960D7E709
:1018500002D90C232B60D3E7206821188A4204BFE9
:1018600011685268626004BF091821605C60C7E7B4
:1018700038BD00BFE004002070B5CD1C25F0030585
:1018800008350C2D38BF0C25002D064601DBA9427A
:1018900003D90C233360002070BD00F081F8234A87
:1018A0001468214691B9224C23681BB9304600F0D8
:1018B00067F820602946304600F062F8431C26D1C4
:1018C0000C233360304600F06CF8E4E70B685B1BD8
:1018D0001AD40B2B0FD90B60CD50CC18304600F02A
:1018E00060F804F10B00231D20F00700C31A1BD081
:1018F0005A42E25070BD8C420DBF63684B68636012
:10190000136018BF0C46E9E70C464968CAE7C41CD7
:1019100024F00304A04205D0211A304600F030F82C
:101920000130CDD02560D9E770BD00BFE0040020B4
:10193000E4040020F8B5074614460E4621B91146C6
:10194000BDE8F840FFF798BF22B9FFF747FF2546EB
:101950002846F8BD00F026F884420FD921463846C3
:10196000FFF78AFF05460028F2D031462246FFF7EE
:101970000FFF31463846FFF731FFE9E73546E7E725
:1019800038B5064C0023054608462360FFF77CFB6C
:10199000431C02D1236803B12B6038BD58050020D9
:1019A0007047704751F8040C0028A0F10400BCBF38
:1019B0000B58C01870470000F8B500BFF8BC08BC51
:1019C0009E467047F8B500BFF8BC08BC9E467047FD
:1019D00001040802426F6F74696E6720696D616768
:1019E000652000486173683A2025236C580A00522C
:1019F000544F5320426F6F746564210A0050616E2A
:101A000069632100232D302B2000686C4C00656633
:101A1000674546470030313233343536373839413F
:101A20004243444546003031323334353637383955
:081A3000616263646566000059
:041A3800B5010008EC
:041A3C00910100080C
:101A400047B3EDFE5C6509CC5C05000043412044D2
:101A5000656D6F20496D6167650000000000000042
:101A60000000000000000000000000000000000076
:101A70000000000000000000000000000000000066
:101A8000000000000000000000000000010203044C
:101A900005060708090A0B0C0D0E0F1000000000C8
:101AA0000000000000000000000000000000000036
:101AB0000000000000000000000000000000000026
:101AC0000000000000000000000000000000000016
:101AD0000000000000000000000000000000000006
:101E80000000000000000000000000000001000051
:101E9000CD09654C5804002000000000000000003F
:101EA0000000000000000000000000000000000032
:101EB0000000000000000000000000000000000022
:101EC0000000000000000000000000000000000012
:101ED0000000000000000000000000000000000002
:101EE00000000000000000000000000000000000F2
:081EF0000000000000000000EA
:04000005080010BD22
:00000001FF
