:020000040800F2
:1000000000300020B90F000801100008011000089E
:100010000110000801100008011000080000000095
:1000200000000000000000000000000001100008B7
:100030000110000800000000011000080110000875
:1000400000000000000000000000000000000000B0
:1000500000000000000000000000000000000000A0
:100060000000000000000000000000000000000090
:100070000000000000000000000000000000000080
:100080000000000000000000000000000000000070
:100090000000000000000000000000000000000060
:1000A0000000000000000000000000000000000050
:1000B0000000000000000000000000000000000040
:1000C0000000000000000000000000000000000030
:1000D0000000000000000000000000000000000020
:1000E0000000000000000000000000000000000010
:1000F0000000000000000000000000000000000000
:1001000000000000000000000000000000000000EF
:1001100000000000000000000000000000000000DF
:1001200000000000000000000000000000000000CF
:1001300000000000000000000000000000000000BF
:1001400000000000000000000000000000000000AF
:10015000000000000000000000000000000000009F
:10016000000000000000000000000000000000008F
:10017000000000000000000000000000000000007F
:08018000000000000000000077
:1001880010B5054C237833B9044B13B10448AFF3C9
:1001980000800123237010BD5404002000000000DB
:1001A8004C10000808B5034B1BB103490348AFF3D3
:1001B800008008BD00000000580400204C10000812
:1001C80038B5451E15F8014F24B90A2000F02AF960
:1001D800204638BD204600F025F9F3E703460144E0
:1001E80000208B4200D1704713F8012B82EA30605F
:1001F800F7E737B54B1E019001AA0331002013F829
:10020800015F12F8014B85EA3060994280EA0400E8
:10021800F5D103B030BD00000148FFF7D1BF00BFE2
:100228007710000810B504460548FFF7C9FF2046B7
:10023800FFF7C6FF0348BDE81040FFF7C1BF00BF86
:10024800681000088310000870B5164605460C466D
:1002580000F0DAF831462846FFF7CBFF031B584277
:10026800584170BD38B50F4C0F4B22689A4212D1D5
:10027800D4F84C1404F14C00FFF7B0FF221DD4F859
:100288005014FFF7E1FF054638B100F0C4F804F157
:100298000C00FFF7C7FF002038BD00F0BCF8256050
:1002A800F9E700BF0000002047B3EDFE08B500F0F5
:1002B80009F800F047F800F083F8FFF7D3FFFFF7DD
:1002C800ABFFFEE770B596B0002403264FF4A023D9
:1002D8000CA80125CDE90C631094149400F0BAF829
:1002E8000F23214602A8CDE90235CDE9044406943E
:1002F80000F01AFB114B5A6942F400225A615B69FB
:10030800CDE9094603F400230D4C0193019B07A98D
:100318004FF4C0432046CDE9073500F0ABFB2A4631
:1003280020464FF4005100F067FC2A464FF4804104
:10033800204600F061FC16B070BD00BF00100240FE
:100348000008004810B54FF4C06288B00223CDE918
:10035800032301210323CDE90513164C0723079333
:10036800636943F400336361636903F40033019301
:1003780003A94FF09040019B00F07CFB0E48DFF88A
:100388003CC04FF41643C0E900C30023C0E9023360
:10039800036183610C234361A36943F48043A36130
:1003A800A36903F480430293029B00F07FFD08B029
:1003B80010BD00BF00100240780400200038014042
:1003C800104B30B55A6942F400325A615B6987B004
:1003D80003F400330093009B4FF480540123CDE9CC
:1003E80001430025032301A94FF09040CDE90353B1
:1003F80000F040FB2A4621464FF0904000F0FCFBFD
:1004080007B030BD0010024001224FF480514FF078
:10041800904000F0F1BB00224FF480514FF0904023
:1004280000F0EABB07B541F288338DF807000122D6
:100438000DF10701024800F064FD03B05DF804FB0C
:1004480078040020024B1868421C1A60704700BFED
:100458007004002003682DE9F743D907044611D436
:1004680023689A0700F1868023681E0700F1F4804C
:1004780023685D0700F13B81E269002A40F0CF81E3
:10048800002021E0B7494B6803F00C03042B07D088
:100498004B6803F00C03082B19D14B68DB0316D506
:1004A8004FF4003393FAA3F2096893FAA3F3B3FA6B
:1004B80083F303F01F03012202FA03F30B42CFD0A8
:1004C8006368002BCCD1012003B0BDE8F0836268DB
:1004D800B2F5803F24D10B6843F480330B60CB6ABC
:1004E800A06823F00F030343CB624AB3FFF7AAFFC8
:1004F8004FF400350746012695FAA5F30A6895FAE0
:10050800A5F3B3FA83F303F01F0306FA03F31342C8
:10051800A6D1FFF797FFC01B6428EDD90320D3E7C6
:100528000B6832B923F480330B600B6823F4802303
:10053800D4E7B2F5A02FF5D143F480230B60CAE7C6
:10054800FFF780FF4FF400350746012695FAA5F31B
:100558000A6895FAA5F3B3FA83F303F01F0306FAC2
:1005680003F313423FF47CAFFFF76CFFC01B642812
:10057800ECD9D3E77B494B6813F00C0F07D04B68D5
:1005880003F00C03082B21D14B68DF031ED4022390
:1005980093FAA3F2086893FAA3F3B3FA83F303F088
:1005A8001F03012202FA03F3034202D02369934294
:1005B80089D10868F82393FAA3F3B3FA83F263693D
:1005C800934020F0F80213430B604DE722690125A0
:1005D80002B395FAA5F3B3FA83F303F1845303F551
:1005E80084139B0002261D60FFF72CFF074696FA2E
:1005F800A6F30A6896FAA6F3B3FA83F303F01F0387
:1006080005FA03F31342D4D1FFF71CFFC01B0228DD
:10061800EDD983E795FAA5F3B3FA83F303F184538D
:1006280003F584139B0002261A60FFF70BFF0746A9
:1006380096FAA6F30A6896FAA6F3B3FA83F303F0D8
:100648001F0305FA03F313423FF40EAFFFF7FAFE58
:10065800C01B0228ECD961E7A269424D424801213A
:1006680012B391FAA1F3B3FA83F303449B00022671
:100678001960FFF7E7FE074696FAA6F396FAA6F37F
:1006880096FAA6F36A6A96FAA6F3B3FA83F303F026
:100698001F0301FA03F313427FF4EAAEFFF7D2FE19
:1006A800C01B0228E8D939E791FAA1F3B3FA83F31A
:1006B80003449B0002261A60FFF7C4FE074696FA19
:1006C800A6F396FAA6F396FAA6F36A6A96FAA6F33A
:1006D800B3FA83F303F01F0301FA03F313423FF461
:1006E800C7AEFFF7AFFEC01B0228E8D916E71D49C1
:1006F800CB69D80033D4CB6943F08053CB61CB6945
:1007080003F080530193019B0125184E3368DA05E5
:100718002ED5E368012B3BD10B6A43F001030B6232
:10072800FFF790FE02268146B046012796FAA6F307
:1007380096FAA6F3002B6AD00A6A98FAA8F3B3FAD5
:1007480083F303F01F0307FA03F3134256D0002D77
:100758003FF492AECB6923F08053CB618CE6002541
:10076800D3E700BF001002402081901000700040C5
:10077800336843F480733360FFF764FE07463368D9
:10078800DB05C6D4FFF75EFEC01B6428F7D9C5E6B3
:1007980033BB0B6A23F001030B620B6A23F00403DB
:1007A8000B62FFF74FFE02268146B046012796FAF4
:1007B800A6F396FAA6F373B30A6A98FAA8F3B3FAFB
:1007C80083F303F01F0307FA03F31342BFD0FFF7C5
:1007D80039FE41F28833A0EB09009842E7D99DE63B
:1007E800052B0B6A03D143F004030B6294E723F053
:1007F80001030B620B6A23F0040390E7FFF722FE64
:1008080041F28833A0EB090098428FD986E696FA20
:10081800A6F34A6A91E796FAA6F34A6ACDE74149F0
:100828004B6803F00C03082B3FF44DAE022A4FF03F
:10083800807351D193FAA3F3B3FA83F303F184538A
:1008480003F584139B0000221A60FFF7FBFD4FF0AD
:1008580000760746012596FAA6F30A6896FAA6F3E3
:10086800B3FA83F303F01F0305FA03F313422DD100
:10087800D4E908034A68034322F4741213434B6013
:100888004FF0807393FAA3F3B3FA83F303F184531D
:1008980003F584139B004FF000741D60FFF7D2FD31
:1008A8000125064694FAA4F30A6894FAA4F3B3FA65
:1008B80083F303F01F0305FA03F313427FF4E0AD5B
:1008C800FFF7C0FD801B0228ECD927E6FFF7BAFD29
:1008D800C01B0228BFD921E693FAA3F3B3FA83F326
:1008E80003F1845303F584139B0000221A60FFF779
:1008F800A9FD4FF000740646012594FAA4F30A688E
:1009080094FAA4F3B3FA83F303F01F0305FA03F38D
:1009180013423FF4B5ADFFF795FD801B0228ECD9D3
:10092800FCE500BF00100240504AF8B5136803F018
:1009380007038B4205461BD32A68900724D4D207A5
:100948002AD44A4A136803F007038B427AD82868E6
:10095800430700F1828010F0080014D0444A296946
:10096800536823F4605343EAC103536000200AE04C
:10097800136823F007030B431360136803F007039E
:100988008B42D9D00120F8BD3948AC68436823F0C0
:10099800F00323434360D2E76A68354C012A27D124
:1009A8004FF4003393FAA3F0206893FAA3F3B3FA51
:1009B80083F303F01F0302FA03F30342E2D06368F0
:1009C80023F003031A436260FFF73CFD6B68012BB9
:1009D800064641F288371ED1636803F00C03042BE6
:1009E800AFD0FFF72FFD801BB842F5D90320CAE727
:1009F800022A0CBF4FF00073022393FAA3F0266873
:100A080093FAA3F3B3FA83F303F01F03012000FA68
:100A180003F33342D2E7022B0FD1636803F00C03D0
:100A2800082B8ED0FFF70EFD801BB842F5D9DDE705
:100A3800FFF708FD801BB842D8D8636813F00C0F85
:100A4800F6D17EE7136823F007030B43136013689E
:100A580003F007038B4295D179E7054AE9685368A3
:100A680023F4E0630B43536075E700BF00200240A6
:100A7800001002402DE9F74FD1F80080DFF874919B
:100A88005A4A002338FA03F402D103B0BDE8F08FC4
:100A9800012404FA03FA1AEA080500F09C804C685D
:100AA80024F0100BBBF1020F14D14FEAD30C00EB6A
:100AB8008C0C03F0070EDCF820604FEA8E0E0F272F
:100AC80007FA0EF726EA07070E6906FA0EF63E43FE
:100AD800CCF820604FEA430E0327066807FA0EF7A2
:100AE800FF4304F0030C3E400CFA0EFC0BF1FF3BF5
:100AF8004CEA0606BBF1010F066011D8866806EAC3
:100B0800070BCE6806FA0EFC4CEA0B0686604668B0
:100B180026EA0A0AC4F300169E4046EA0A06466018
:100B2800C66837408E6806FA0EF63743E600C76097
:100B380051D5D9F8186046F00106C9F81860D9F8F7
:100B4800186023F0030707F1804706F0010607F550
:100B58008037019603F0030E019EBE684FEA8E0EA1
:100B68004FF00F0C0CFA0EFCB0F1904F26EA0C0C6B
:100B780033D01F4EB04232D006F58066B04230D036
:100B880006F58066B0422ED006F58066B0420CBFEE
:100B98000426052606FA0EF646EA0C06BE60166816
:100BA800EF4314F4803F0CBF3E402E431660566856
:100BB80014F4003F0CBF3E402E435660966814F470
:100BC800801F0CBF3E402E439660D668A40254BFD7
:100BD8003E402E43D660013354E70026DAE701266B
:100BE800D8E70226D6E70326D4E700BF0004014071
:100BF80000040048001002400AB181617047816218
:100C080070470000014602688B6830B50D69C469F9
:100C180010682B434D6920F416402B4320F00C003C
:100C28002343034313605368C8680D6A23F4405391
:100C38000343536090688B6920F430602B4303436F
:100C48009360654B9A4212D103F5584363481B6B76
:100C580003F00303C05CB4F5004F78D1082873D8BB
:100C6800DFE800F064AD2372AD727272B5005C4BC0
:100C78009A4225D103F5E633186B00F44030B0F5FD
:100C8800803F00F0998006D80028E4D0B4F5004FE2
:100C98005AD0012057E0B0F5003F00F09580B0F53C
:100CA800403FF3D1B4F5004F70D149684B0803F1C8
:100CB800F47303F59043B3FBF1F300209BB23CE0DF
:100CC800484B9A420ED103F5E433186B00F44020E8
:100CD800B0F5802F70D0D7D9B0F5002F74D0B0F50B
:100CE800402FDEE7404B9A420ED103F5E233186BF2
:100CF80000F44010B0F5801F5ED0C5D9B0F5001FD4
:100D080062D0B0F5401FCCE7384B9A42BED103F50C
:100D1800E033186B00F44000B0F5800F4CD0B3D925
:100D2800B0F5000F50D0B0F5400FBAE749684B084E
:100D380003F56103B3FBF1F39BB223F00F01C3F397
:100D480042030B43D36030BD01200023F5E7082898
:100D58009FD801A353F820F0850D0008AD0D0008B9
:100D6800950D00089B0C0008AD0D00089B0C0008B1
:100D78009B0C00089B0C0008B70D000849684B083D
:100D880003F5E103B3FBF1F39BB2DBE749684B08DA
:100D980003F5740303F51053B3FBF1F39BB2D3606F
:100DA8000020D0E749684B0803F5E103F4E74968F8
:100DB8004B0803F50043EFE7B4F5004FF2D149685B
:100DC8004B0803F5610376E7B4F5004FEFD14968A6
:100DD8004B0803F580336EE70038014064100008C3
:100DE8000044004000480040004C004000500040D3
:100DF800F8B5069D044616461F462068C26931EAC2
:100E080002030CBF01220022B24201D0002014E0EC
:100E18006B1CF3D095B923681A6822F4D0721A6053
:100E28009A6822F001029A60202384F8693084F8D5
:100E38006A30002384F868300320F8BDFFF702FB0E
:100E4800C01BA842D9D9E6E737B504460021C166D8
:100E5800FFF7F8FA23681B681A07054617D42368B2
:100E68001B685B070AD56FF07E43009300222B4670
:100E78004FF480012046FFF7BBFFA0B920230020D4
:100E880084F8693084F8680084F86A300CE06FF000
:100E98007E4300930A4603464FF400112046FFF7AD
:100EA800A7FF0028DBD0032003B030BD10B50446EF
:100EB80028B390F8693003F0FF020BB980F8682076
:100EC8002268242384F86930136823F0010313602F
:100ED8002046FFF797FE012811D023685A6822F4AC
:100EE80090425A609A6822F02A029A601A6842F080
:100EF800010220461A60BDE81040FFF7A5BF012097
:100F080010BDF7B51F4690F86930202B0D460446F2
:100F180011464AD1002D46D0002A44D090F86830B6
:100F2800012B42D0012380F868300023C3662123B7
:100F380080F86930FFF786FA0646A4F85010A4F83E
:100F48005210B4F8522092B262B900973346402149
:100F58002046FFF74DFF98B9202384F8693084F8BC
:100F680068000EE0B4F852300097013B9BB2A4F839
:100F780052300022334680212046FFF739FF10B156
:100F8800032003B0F0BDA3682268B3F5805F07D1E2
:100F980023692BB935F8023BC3F308031385D0E75F
:100FA80015F8013BFAE70120EBE70220E9E700002A
:100FB800002103E00B4B5B58435004310A480B4BAC
:100FC80042189A42F6D30A4A02E000231360043218
:100FD800084B9A42F9D3AFF3008000F00FF8FFF7FF
:100FE80065F9FEE794100008000000205404002072
:100FF80054040020E8040020FEE7000070B50D4D01
:101008000D4C641BA4100026A64209D10B4D0C4CB4
:1010180000F018F8641BA4100026A64205D170BD84
:1010280055F8043B98470136EEE755F8043B9847D6
:101038000136F2E78C1000088C1000088C100008AC
:1010480090100008F8B500BFF8BC08BC9E46704771
:0C105800F8B500BFF8BC08BC9E4670470D
:1010640001040802426F6F74696E6720696D6167DD
:1010740065200052544F5320426F6F746564210AF7
:081084000050616E6963210058
:04108C00AD010008AA
:0410900089010008CA
:1010940047B3EDFE5C6509CC5C0500004341204488
:1010A400656D6F20496D61676500000000000000F8
:1010B400000000000000000000000000000000002C
:1010C400000000000000000000000000000000001C
:1010D4000000000000000000000000000102030402
:1010E40005060708090A0B0C0D0E0F10000000007E
:1010F40000000000000000000000000000000000EC
:1011040000000000000000000000000000000000DB
:1011140000000000000000000000000000000000CB
:1011240000000000000000000000000000000000BB
:1014D4000000000000000000000000000001000007
:0414E400EFBEADDECC
:0400000508000FB927
:00000001FF
