:020000040800F2
:10000000003000202118000869180008691800084D
:100010006918000869180008691800080000000045
:100020000000000000000000000000006918000847
:100030006918000800000000691800086918000825
:1000400000000000000000000000000000000000B0
:1000500000000000000000000000000000000000A0
:100060000000000000000000000000000000000090
:100070000000000000000000000000000000000080
:100080000000000000000000000000000000000070
:100090000000000000000000000000000000000060
:1000A0000000000000000000000000000000000050
:1000B0000000000000000000000000000000000040
:1000C0000000000000000000000000000000000030
:1000D0000000000000000000000000000000000020
:1000E0000000000000000000000000000000000010
:1000F0000000000000000000000000000000000000
:1001000000000000000000000000000000000000EF
:1001100000000000000000000000000000000000DF
:1001200000000000000000000000000000000000CF
:1001300000000000000000000000000000000000BF
:1001400000000000000000000000000000000000AF
:10015000000000000000000000000000000000009F
:10016000000000000000000000000000000000008F
:10017000000000000000000000000000000000007F
:08018000000000000000000077
:1001880010B5054C237833B9044B13B10448AFF3C9
:1001980000800123237010BD5804002000000000D7
:1001A800CC1800080C4B43B10C480D4910B5AFF3FF
:1001B80000800C48036823B910BD0A48036833B9A6
:1001C8007047094B002BF7D0BDE810401847064B85
:1001D800002BF5D0184700BF00000000CC1800081D
:1001E8005C040020580400200000000008B501202D
:1001F80000F03EFC014B00221A6008BD0000002000
:1002080008B5022000F034FC014B00221A6008BD3A
:100218000000002038B5451E15F8014F24B90A2002
:1002280000F03AFD204638BD204600F035FDF3E7E2
:1002380010B50446022000F01BFC0548FFF7EAFF52
:100248002046FFF7E7FF0348BDE81040FFF7E2BF8D
:10025800F8180008131900080346014400208B42CF
:1002680000D1704713F8012B82EA3060F7E70000ED
:1002780010B5044688B0012000F0FAFBD4F8401409
:1002880004F14000FFF7E8FF08AA002342F8043D04
:10029800084B0393084B019304230690009304949E
:1002A800029404F2444306A9044800F017FA08B07F
:1002B80010BD00BF0902000839020008E902000861
:1002C80037B502AC002344F8040D1846CA5C1D5D1E
:1002D80001336A40042B82EA3060F7D103B030BDA5
:1002E80010B500680C460249FFF7EAFF206010BD10
:1002F800040000200148FFF78DBF00BF0719000860
:1003080008B50248FFF786FFFEE700BF1519000889
:1003180070B5134C134888B004AD00F0A9FB06AEC5
:1003280000F0ACFC54F80C1B284600F0DFFB30460C
:100338000D4900F0DBFB0D4B02930D4B0394019428
:10034800009396E80C0095E8030000F01FF800F011
:100358009CFC032000F08CFB002008B070BD00BF9F
:100368000000002080F4FFFF47B3EDFEF501000810
:100378007902000808B500F0E1FB00F01FFC00F06E
:1003880059FCFFF7C5FFFFF7B5FFFEE790B589B049
:1003980000AF08243C192060616039000A604B6096
:1003A800C64B1B68C64A934206D0C64B1B685A1CEC
:1003B800C44B1A60FFF7A4FFC34AC34B9A4206D046
:1003C800C04B1B685A1CBF4B1A60FFF799FFBB4B09
:1003D8001B68BD4A934206D1BA4B1B685A1CB94BDD
:1003E8001A60FFF78DFF3B6BC022520253403B63FC
:1003F8007B6BC022520253407B63B04B1B68B04AF0
:10040800934206D0AF4B1B685A1CAE4B1A60FFF7DD
:1004180077FFAD4AAC4B9A4206D0AA4B1B685A1CD0
:10042800A84B1A60FFF76CFFA44B1B68A64A9342BF
:1004380006D1A44B1B685A1CA24B1A60FFF760FF39
:10044800BB6BC02252025340BB63FB6BC0225202FB
:100458005340FB630023FB610023BB619B4B7B6123
:10046800964B1B68964A934206D0964B1B685A1CBB
:10047800944B1A60FFF744FF934A934B9A4206D075
:10048800904B1B685A1C8F4B1A60FFF739FF8B4B38
:100498001B688D4A934249D18A4B1B685A1C894B69
:1004A8001A60FFF72DFF41E07B69032B32D100F082
:1004B80015FB00F013FBFB69032B12D100F00EFBB8
:1004C80000F00CFBFB69032B09D13B6B002B04D01C
:1004D8007A6B3B6B100000F0FFF87D4BE8E000F012
:1004E80023FBBB69032B12D100F0F8FA00F0F6FAEF
:1004F800BB69032B09D1BB6B002B04D0FA6BBB6B18
:10050800100000F0E9F8734BD2E000F00DFB00F0AA
:100518000BFB01E000F008FB6A4B1B685A1C694B97
:100528001A60FFF7EDFE01235B42C1E0C0460023DD
:100538007B610823FB181A683B001B689A4203D1A9
:10054800FB690133FB6102E0BB690133BB6100F069
:10055800C5FA7B6901337B61584B1B68584A934243
:1005680006D0584B1B685A1C564B1A60FFF7C8FE3A
:10057800554A554B9A4206D0524B1B685A1C514B50
:100588001A60FFF7BDFE4D4B1B684F4A934206D1D8
:100598004C4B1B685A1C4B4B1A60FFF7B1FE7A692B
:1005A800FB699A420AD07A69BB699A4206D0454BE0
:1005B8001B685A1C434B1A60FFF7A2FE7B69032B8A
:1005C80047D13E4B1B683E4A934206D03D4B1B68C1
:1005D8005A1C3C4B1A60FFF793FE3B4A3A4B9A422F
:1005E80006D0384B1B685A1C364B1A60FFF788FE3A
:1005F800324B1B68344A934206D1324B1B685A1C53
:10060800304B1A60FFF77CFE7A69FB699A420AD17F
:10061800FB69DA033B6B53403B63FB69DA037B6B93
:1006280053407B6340E77A69BB699A420AD1BB6948
:10063800DA03BB6B5340BB63FB69DA03FB6B5340C4
:10064800FB6331E71F4B1B685A1C1E4B1A60FFF7F0
:1006580057FE7B69032B06DD1A4B1B685A1C194B86
:100668001A60FFF74DFE154B1B68154A934206D0DA
:10067800144B1B685A1C134B1A60FFF741FE124AB1
:10068800114B9A4206D00F4B1B685A1C0D4B1A602F
:10069800FFF736FE094B1B680B4A934200D048E728
:1006A800084B1B685A1C074B1A60FFF729FE40E7E6
:1006B8001800BD4609B090BC02BC0847540400208D
:1006C8003174EDFE780400201985A85518FCFFFF49
:1006D8003809BF5A2AF020281847C04680B58AB082
:1006E80000AFF860B9607A603B60D64B1B68D64AA9
:1006F800934206D0D54B1B685A1CD44B1A60FFF79F
:10070800FFFDD34AD24B9A4206D0D04B1B685A1CE5
:10071800CE4B1A60FFF7F4FDCA4B1B68CC4A9342D4
:1007280006D1CA4B1B685A1CC84B1A60FFF7E8FD74
:100738007968BA68FB68100000F098F97B6BC022F2
:10074800520253407B63BB6BC02252025340BB63CF
:10075800BC4B1B68BC4A934206D0BC4B1B685A1C56
:10076800BA4B1A60FFF7CCFDB94AB94B9A4206D08A
:10077800B64B1B685A1CB54B1A60FFF7C1FDB14B4D
:100788001B68B34A934206D1B04B1B685A1CAF4B47
:100798001A60FFF7B5FDFB6BC02252025340FB63A2
:1007A8003B6CC022520253403B6400237B6200230F
:1007B8003B62A84BFB61A34B1B68A34A934206D03C
:1007C800A24B1B685A1CA14B1A60FFF799FDA04A5F
:1007D8009F4B9A4206D09D4B1B685A1C9B4B1A6034
:1007E800FFF78EFD974B1B68994A934249D1974B67
:1007F8001B685A1C954B1A60FFF782FD41E0FB69A4
:10080800032B32D100F06AF900F068F97B6A032BF8
:1008180012D100F063F900F061F97B6A032B09D16A
:100828007B6B002B04D0BA6B7B6B100000F01EF9B9
:10083800894B15E100F078F93B6A032B12D100F0DF
:100848004DF900F04BF93B6A032B09D1FB6B002BE8
:1008580004D03A6CFB6B100000F008F97F4BFFE006
:1008680000F062F900F060F901E000F05DF9774B03
:100878001B685A1C754B1A60FFF742FD01235B4247
:10088800EEE0C0460023FB610023BB6100237B61CF
:100898000023BB6116E0BB693A68D3181B783B613B
:1008A800BB697A68D3181A78BB693968CB181B7882
:1008B8009A4204D000F0E9F901237B6106E0BB69A4
:1008C8000133BB61BA693B6B9A42E4D37B69002B65
:1008D80003D17B6A01337B6202E03B6A01333B62EE
:1008E80000F0FCF8FB690133FB61564B1B68564A64
:1008F800934206D0554B1B685A1C544B1A60FFF79D
:10090800FFFC534A524B9A4206D0504B1B685A1C64
:100918004E4B1A60FFF7F4FC4A4B1B684C4A934253
:1009280006D14A4B1B685A1C484B1A60FFF7E8FC73
:10093800FA697B6A9A420AD0FA693B6A9A4206D0F7
:10094800424B1B685A1C414B1A60FFF7D9FCFB69E4
:10095800032B47D13B4B1B683B4A934206D03B4B8A
:100968001B685A1C394B1A60FFF7CAFC384A384BC7
:100978009A4206D0354B1B685A1C344B1A60FFF755
:10098800BFFC304B1B68324A934206D12F4B1B6881
:100998005A1C2E4B1A60FFF7B3FCFA697B6A9A421D
:1009A8000AD17B6ADA037B6B53407B637B6ADA0389
:1009B800BB6B5340BB6322E7FA693B6A9A420AD190
:1009C8003B6ADA03FB6B5340FB637B6ADA033B6CDD
:1009D80053403B6413E71D4B1B685A1C1B4B1A60A2
:1009E800FFF78EFCFB69032B06DD184B1B685A1CAE
:1009F800164B1A60FFF784FC124B1B68124A93428D
:100A080006D0124B1B685A1C104B1A60FFF778FC73
:100A18000F4A0F4B9A4206D00C4B1B685A1C0B4BC3
:100A28001A60FFF76DFC074B1B68094A934200D018
:100A38002AE7064B1B685A1C044B1A60FFF760FC38
:100A480022E7C046540400203174EDFE78040020EB
:100A58001985A85518FCFFFF3809BF5A2AF0202825
:100A68001800BD460AB080BC02BC08471847C046FB
:100A780080B582B000AF78607B68154A934203D195
:100A8800144B00221A601EE0124B1B685A1C114BB3
:100A98001A60104B1A687B689A4206D00E4B1B6886
:100AA8005A1C0D4B1A60FFF72BFC0A4B1A687B681F
:100AB8009A4207D0084B1B685A1C074B1A60FFF76D
:100AC8001FFCC046C046BD4602B080BC01BC004702
:100AD80080F4FFFF740400207804002080B500AF84
:100AE800C0461800BD4680BC02BC084780B584B02B
:100AF80000AF786039600823FB183A681A603B68D1
:100B0800DA430823FB185A607A680823FB18100098
:100B1800190008231A0000F0C9FE7868BD4604B021
:100B280080BC02BC0847000080B500AF024B18002B
:100B3800FFF770FBFEE7C046E418000870B596B0F2
:100B4800002403264FF4A0230CA801250D9310942C
:100B580014940C9600F0B8F80F23214602A80293CB
:100B6800049405940694039500F018FB114B5A69F8
:100B780042F400225A615B69099403F400230E4C85
:100B88000193019B08954FF4C04307A9204607939A
:100B98000A9600F0A9FB2A4620464FF4005100F0BF
:100BA80065FC2A464FF48041204600F05FFC16B0F1
:100BB80070BD00BF001002400008004810B588B0A2
:100BC8004FF4C06303930223049301230593032383
:100BD800154C069307230793636943F40033636155
:100BE800636903F40033019303A94FF09040019B1C
:100BF80000F07AFB0D480E4B4FF4164E80E8084083
:100C080000238360C360036183610C234361A3698C
:100C180043F48043A361A36903F480430293029BD6
:100C280000F078FD08B010BD0010024084040020D8
:100C380000380140104B30B55A6942F400325A610D
:100C48005B6987B003F400330093009B01234FF4E2
:100C5800805402930025032301A94FF09040049388
:100C68000194039500F040FB2A4621464FF090403E
:100C780000F0FCFB07B030BD0010024001224FF429
:100C880080514FF0904000F0F1BB00224FF48051AA
:100C98004FF0904000F0EABB07B502A941F2883353
:100CA80001F8010D0122034800F05FFD03B05DF873
:100CB80004FB00BF84040020024B1868421C1A6021
:100CC800704700BF7C04002003682DE9F743D9076B
:100CD800044611D423689A0700F1868023681E070A
:100CE80000F1F48023685D0700F13B81E269002A86
:100CF80040F0CF81002021E0B7494B6803F00C0396
:100D0800042B07D04B6803F00C03082B19D14B6850
:100D1800DB0316D54FF4003393FAA3F2096893FA6C
:100D2800A3F3B3FA83F303F01F03012202FA03F3D8
:100D38000B42CFD06368002BCCD1012003B0BDE8B3
:100D4800F0836268B2F5803F24D10B6843F48033A6
:100D58000B60CB6AA06823F00F030343CB624AB34E
:100D6800FFF7AAFF4FF400350746012695FAA5F3C9
:100D78000A6895FAA5F3B3FA83F303F01F0306FA9A
:100D880003F31342A6D1FFF797FFC01B6428EDD9E0
:100D98000320D3E70B6832B923F480330B600B6868
:100DA80023F48023D4E7B2F5A02FF5D143F48023B0
:100DB8000B60CAE7FFF780FF4FF4003507460126AE
:100DC80095FAA5F30A6895FAA5F3B3FA83F303F045
:100DD8001F0306FA03F313423FF47CAFFFF76CFFDF
:100DE800C01B6428ECD9D3E77B494B6813F00C0F80
:100DF80007D04B6803F00C03082B21D14B68DF03A5
:100E08001ED4022393FAA3F2086893FAA3F3B3FA61
:100E180083F303F01F03012202FA03F3034202D013
:100E28002369934289D10868F82393FAA3F3B3FAA4
:100E380083F26369934020F0F80213430B604DE797
:100E48002269012502B395FAA5F3B3FA83F303F1F6
:100E5800845303F584139B0002261D60FFF72CFFC3
:100E6800074696FAA6F30A6896FAA6F3B3FA83F346
:100E780003F01F0305FA03F31342D4D1FFF71CFF55
:100E8800C01B0228EDD983E795FAA5F3B3FA83F3DB
:100E980003F1845303F584139B0002261A60FFF7BD
:100EA8000BFF074696FAA6F30A6896FAA6F3B3FA72
:100EB80083F303F01F0305FA03F313423FF40EAF65
:100EC800FFF7FAFEC01B0228ECD961E7A269424D80
:100ED8004248012112B391FAA1F3B3FA83F3034410
:100EE8009B0002261960FFF7E7FE074696FAA6F36D
:100EF80096FAA6F396FAA6F36A6A96FAA6F3B3FAEE
:100F080083F303F01F0301FA03F313427FF4EAAEFD
:100F1800FFF7D2FEC01B0228E8D939E791FAA1F3FE
:100F2800B3FA83F303449B0002261A60FFF7C4FE5A
:100F3800074696FAA6F396FAA6F396FAA6F36A6A0D
:100F480096FAA6F3B3FA83F303F01F0301FA03F347
:100F580013423FF4C7AEFFF7AFFEC01B0228E8D923
:100F680016E71D49CB69D80033D4CB6943F08053C9
:100F7800CB61CB6903F080530193019B0125184E87
:100F88003368DA052ED5E368012B3BD10B6A43F0B1
:100F980001030B62FFF790FE02268146B046012747
:100FA80096FAA6F396FAA6F3002B6AD00A6A98FA7C
:100FB800A8F3B3FA83F303F01F0307FA03F313420A
:100FC80056D0002D3FF492AECB6923F08053CB610D
:100FD8008CE60025D3E700BF001002402081901066
:100FE80000700040336843F480733360FFF764FE99
:100FF80007463368DB05C6D4FFF75EFEC01B6428CE
:10100800F7D9C5E633BB0B6A23F001030B620B6A01
:1010180023F004030B62FFF74FFE02268146B04619
:10102800012796FAA6F396FAA6F373B30A6A98FA12
:10103800A8F3B3FA83F303F01F0307FA03F3134289
:10104800BFD0FFF739FE41F28833A0EB0900984280
:10105800E7D99DE6052B0B6A03D143F004030B6225
:1010680094E723F001030B620B6A23F0040390E773
:10107800FFF722FE41F28833A0EB090098428FD98E
:1010880086E696FAA6F34A6A91E796FAA6F34A6ABA
:10109800CDE741494B6803F00C03082B3FF44DAEF4
:1010A800022A4FF0807351D193FAA3F3B3FA83F372
:1010B80003F1845303F584139B0000221A60FFF7A1
:1010C800FBFD4FF000760746012596FAA6F30A685D
:1010D80096FAA6F3B3FA83F303F01F0305FA03F3B2
:1010E80013422DD14A68636A206A22F474120343BA
:1010F80013434B604FF0807393FAA3F3B3FA83F36F
:1011080003F1845303F584139B004FF000741D60B2
:10111800FFF7D2FD0125064694FAA4F30A6894FA6B
:10112800A4F3B3FA83F303F01F0305FA03F313429E
:101138007FF4E0ADFFF7C0FD801B0228ECD927E65D
:10114800FFF7BAFDC01B0228BFD921E693FAA3F323
:10115800B3FA83F303F1845303F584139B0000224D
:101168001A60FFF7A9FD4FF000740646012594FAAE
:10117800A4F30A6894FAA4F3B3FA83F303F01F0301
:1011880005FA03F313423FF4B5ADFFF795FD801B55
:101198000228ECD9FCE500BF00100240504AF8B51F
:1011A800136803F007038B4205461BD32A68900790
:1011B80024D4D2072AD44A4A136803F00703994271
:1011C8007AD32868430700F1828010F0080008D01D
:1011D800444A2969536823F4605343EAC1035360BE
:1011E8000020F8BD136823F007030B43136013684E
:1011F80003F007039942D9D00120F8BD3948AC68FB
:10120800436823F0F00323434360D2E76A68354C10
:10121800012A27D14FF4003393FAA3F0206893FAF8
:10122800A3F3B3FA83F303F01F0302FA03F30342B1
:10123800E2D0636823F003031A436260FFF73CFDC2
:101248006B68012B064641F288371ED1636803F0AC
:101258000C03042BAFD0FFF72FFD801BB842F5D944
:101268000320F8BD022A0CBF4FF00073022393FA43
:10127800A3F0266893FAA3F3B3FA83F303F01F03EA
:10128800012000FA03F33342D2E7022B0FD163683F
:1012980003F00C03082B8ED0FFF70EFD801BB8421D
:1012A800F5D9DDE7FFF708FD801BB842D8D8636899
:1012B80013F00C0FF6D17EE7136823F007030B43F6
:1012C8001360136803F00703994295D179E7054A3B
:1012D800E968536823F4E0630B43536075E700BF84
:1012E80000200240001002402DE9F74FD1F800809D
:1012F800DFF874915A4A002338FA03F402D103B094
:10130800BDE8F08F012404FA03FA18EA0A0500F090
:101318009C804C6824F0100BBBF1020F14D14FEAEB
:10132800D30E00EB8E0E03F0070CDEF820604FEAB8
:101338008C0C0F2707FA0CF726EA07070E6906FA3E
:101348000CF63E43CEF820604FEA430C03270668AC
:1013580007FA0CF7FF4304F0030E3E400EFA0CFEAA
:101368000BF1FF3B4EEA0606BBF1010F066011D8F0
:10137800866806EA070BCE6806FA0CFE4EEA0B06EC
:101388008660466826EA0A0AC4F300169E4046EAC2
:101398000A064660C66837408E6806FA0CF6374378
:1013A800E600C76051D5D9F8186046F00106C9F8BB
:1013B8001860D9F8186023F0030707F1804706F092
:1013C800010607F58037019603F0030C019EBE68FD
:1013D8004FEA8C0C4FF00F0E0EFA0CFEB0F1904F46
:1013E80026EA0E0E33D01F4EB04232D006F5806684
:1013F800B04230D006F58066B0422ED006F5806641
:10140800B04214BF0526042606FA0CF646EA0E0674
:10141800BE601668EF4314F4803F0CBF3E402E4375
:101428001660566814F4003F0CBF3E402E435660C9
:10143800966814F4801F0CBF3E402E439660D66811
:10144800A40254BF3E402E43D660013354E7002621
:10145800DAE70126D8E70226D6E70326D4E700BF55
:101468000004014000040048001002400AB18161F4
:10147800704781627047000002688168C36930B5AF
:10148800056914682943456924F41644294324F05E
:101498000C041943214311605168C468056A21F49A
:1014A8004051214351609468816924F43064294390
:1014B8002143916062498A4212D101F55841614C39
:1014C800096B01F00301B3F5004F615C6ED0082988
:1014D80019D8DFE801F0B08B9618B0181818A000DA
:1014E80059498A422CD101F5E631096B01F44031A2
:1014F800B1F5803F00F09C8007D8002900F0988063
:10150800B3F5004F6FD0012030BDB1F5003F00F0BA
:101518008780B1F5403FF3D1B3F5004F71D14168F1
:101528004B0803F1F47303F59043B3FBF1F3002088
:101538009BB223F00F01C3F342030B43D36030BDCA
:1015480042498A420ED101F5E431096B01F4402188
:10155800B1F5802F6CD0D0D9B1F5002F60D0B1F59E
:10156800402FD8E73A498A420ED101F5E231096B9A
:1015780001F44011B1F5801F5AD0BED9B1F5001F52
:101588004ED0B1F5401FC6E732498A42B8D101F5BD
:10159800E031096B01F44001B1F5800F48D0ACD9B6
:1015A800B1F5000F3CD0B1F5400FB4E708291AD8BF
:1015B80001A353F821F000BFE5150008E515000860
:1015C80027150008EF150008E5150008EF150008B5
:1015D800EF150008EF1500082F16000841684B08A2
:1015E80003F56103A1E701200023A2E7426853083D
:1015F80003F5E103B3FBF2F3114A9BB2D360002079
:1016080030BD41684B0803F5740303F51053B3FB71
:10161800F1F39BB2F2E741684B0803F50043F6E7A4
:10162800B3F5004FF7D141684B0803F580337CE7E9
:10163800B3F5004FD2D041684B0803F5E103E6E764
:1016480000380140F41800080044004000480040F9
:10165800004C004000500040F8B5069D0446164670
:101668001F462068C26931EA02030CBF012200222A
:10167800B24201D00020F8BD6B1CF3D095B92368A5
:101688001A6822F4D0721A609A6822F001029A60ED
:10169800202384F8693084F86A30002384F868309D
:1016A8000320F8BDFFF708FBC01B8542D9D2E6E747
:1016B80037B504460021C166FFF7FEFA23681B68A8
:1016C8001A07054617D423681B685B070AD56FF00D
:1016D8007E43009300222B464FF480012046FFF7FB
:1016E800BBFFA0B92023002084F8693084F8680083
:1016F80084F86A300CE06FF07E4300930A46034694
:101708004FF400112046FFF7A7FF0028DBD0032085
:1017180003B030BD10B5044628B390F8693003F023
:10172800FF020BB980F868202268242384F8693006
:10173800136823F0010313602046FFF79DFE01287C
:1017480011D023685A6822F490425A609A6822F0AD
:101758002A029A601A6842F0010220461A60BDE81F
:101768001040FFF7A5BF012010BDF7B51F4690F840
:101778006930202B0D46044611464BD1002D47D029
:10178800002A45D090F86830012B43D0012380F817
:1017980068300023C366212380F86930FFF78CFA8C
:1017A8000646A4F85010A4F85210B4F8522092B289
:1017B80062B90097334640212046FFF74DFF98B99C
:1017C800202384F8693084F868000EE0B4F85230B9
:1017D8000097013B9BB2A4F8523000223346802187
:1017E8002046FFF739FF10B1032003B0F0BDA3680E
:1017F8002268B3F5805F07D123692BB935F8023B1E
:10180800C3F308031385D0E72B7813850135CCE79C
:101818000120EAE70220E8E7002103E00B4B5B58D0
:10182800435004310A480B4B42189A42F6D30A4AED
:1018380002E0002313600432084B9A42F9D3AFF355
:10184800008000F00FF8FEF795FDFEE72419000868
:10185800000000205804002058040020F404002050
:10186800FEE7000070B50D4E0D4CA41BA41000251A
:10187800A54209D10B4E0C4C00F024F8A41BA4106F
:101888000025A54205D170BD56F825309847013589
:10189800EEE756F8253098470135F2E71C1900089D
:1018A8001C1900081C1900082019000810B5431E4F
:1018B8000A44914200D110BD11F8014B03F8014FC1
:1018C800F7E70000F8B500BFF8BC08BC9E467047B3
:0C18D800F8B500BFF8BC08BC9E46704785
:1018E40046554C4C2050414E494321001985A8557A
:1018F40001040802426F6F74696E6720696D616745
:1019040065200052544F5320426F6F746564210A5E
:081914000050616E69632100BF
:04191C00AD01000811
:041920008901000831
:1019240047B3EDFE5C6509CC5C05000043412044EF
:10193400656D6F20496D616765000000000000005F
:101944000000000000000000000000000000000093
:101954000000000000000000000000000000000083
:101964000000000000000000000000000102030469
:1019740005060708090A0B0C0D0E0F1000000000E5
:101984000000000000000000000000000000000053
:101994000000000000000000000000000000000043
:1019A4000000000000000000000000000000000033
:1019B4000000000000000000000000000000000023
:101D6400000000000000000000000000000100006E
:081D7400EFBEADDE3174EDFE9F
:0400000508001821B6
:00000001FF
